:10000000F8C0000027C1000025C1000023C1000086
:1000100021C100001FC100001DC100001BC1000064
:1000200019C1000017C1000015C1000013C1000074
:1000300011C100000FC100000DC100000BC1000084
:1000400009C1000007C1000005C1000003C1000094
:1000500001C10000FFC00000FDC000000C94570F5C
:10006000F9C000000C94F3120C942913F3C00000A3
:10007000F1C00000EFC00000EDC00000EBC00000C8
:10008000E9C00000E7C00000E5C00000E3C00000D8
:100090000C947F130C94B513DDC00000DBC000008E
:1000A000D9C00000D7C00000D5C00000D3C00000F8
:1000B000D1C00000CFC00000CDC00000CBC0000008
:1000C000C9C00000C7C000000C94260C0C940B148F
:1000D0000C944114BFC000000C9497140C94CD14E0
:1000E000B9C0000000000A0B02090C0D0E0807033E
:1000F00004010000000000000000000000000000FB
:1001000000000000000000000000000000000000EF
:1001100012111000000000000000000000000000AC
:100120000000000000000000000001021020200874
:100130000810204010204080020102010804020142
:1001400001020408102040808040201008040201B1
:10015000800402018040201008040201080402010A
:100160000102040810204080010204081020408091
:1001700005050505070508080808020202020A0A23
:100180000808040404040101010101010101030341
:10019000030303030303040707070C0C0C0C0C0CEC
:1001A0000C0C0202020206060606060606060B0BE9
:1001B0000B0B0B0B0B0B00002200250028002B0063
:1001C0002E003100340002010000050108010B017E
:1001D00000002100240027002A002D0030003300F9
:1001E00001010000040107010A015213DE136A1421
:1001F000F61411241FBECFEFD1E2DEBFCDBF00E069
:100200000CBF12E0A0E0B2E0E8EFFAE200E00BBFC2
:1002100002C007900D92A836B107D9F726E0A8E6EC
:10022000B2E001C01D92A636B207E1F710E0C9EFB7
:10023000D0E000E006C021970109802FFE010E9456
:100240007215C53FD10780E00807A9F70E948D0C01
:100250000C947A15D5CECF93DF93882349F0EB0128
:1002600081500E94031099838883DF91CF91089574
:10027000FB0111821082F9CF0F931F938B019C0118
:1002800083E036952795179507958A95D1F70F58EE
:100290001D4F462F477021E030E0F90102C0EE0FFC
:1002A000FF1F4A95E2F7AF01F80120812423CB011B
:1002B0000196211102C090E080E01F910F910895F6
:1002C0000F931F938B019C0183E03695279517951B
:1002D00007958A95D1F7677081E090E001C0880F9B
:1002E0006A95EAF7F801EF58FD4F2081452B31F46C
:1002F0008095822380831F910F910895822BFACFDE
:10030000CF92DF92EF92FF92CF93DF936B017C014C
:1003100060E086E3C816D104E104F10490F486E3BA
:100320008C0D0E946011E6012196AE01C701B60155
:10033000C7DFCE01DF91CF91FF90EF90DF90CF909C
:1003400008958C2DEECF882341F08150682F70E006
:1003500090E080E050E040E0B3CF0895611102C02A
:100360000C9460116130E1F362E0FACF662319F07A
:1003700061E00C949C1160E0FCCF0895CF92DF9275
:10038000EF92FF92CF93882351F16A017B01CFEF67
:10039000C80F20E030E0A901CB01B6010E944E0D4C
:1003A00087FF11C0C701B60190580E94BF0D9B0185
:1003B000AC016C2F70E090E080E0CF91FF90EF9067
:1003C000DF90CF90B2C0C701B6010E94BA0D8C2F4A
:1003D000CF91FF90EF90DF90CF900C942610CF91AB
:1003E000FF90EF90DF90CF9008950F931F938B01B4
:1003F0009C0183E036952795179507958A95D1F747
:1004000008591D4F462F477021E030E0F90102C026
:10041000EE0FFF1F4A95E2F7AF01F8012081242378
:10042000CB010196211102C090E080E01F910F9155
:1004300008950F931F938B019C0183E036952795B8
:10044000179507958A95D1F7677081E090E001C014
:10045000880F6A95EAF7F801E859FD4F2081452B8E
:1004600031F48095822380831F910F910895822B10
:10047000FACF2F923F924F925F926F927F928F921C
:100480009F92AF92BF92CF92DF92EF92FF920F9323
:100490001F93CF93DF93D62EC72E782E692E490156
:1004A0005A01280161E08D2D0E946011CD2DDC2DB7
:1004B0008E010F5F1F4FA8016D2D7C2D872D962D6E
:1004C000B8DF20E030E0A901C201B7010E94F00EC0
:1004D000181664F4C201B7010E94BF0D2B01C501BB
:1004E000B4010E94BF0DA201CE0123D0C801DF914B
:1004F000CF911F910F91FF90EF90DF90CF90BF9021
:10050000AF909F908F907F906F905F904F903F90B3
:100510002F900895882341F08150682F70E090E07B
:1005200080E050E040E085CF0895862FB9010C941B
:1005300026109C01FC01EC51FF4FE491E150E231A7
:10054000E0F4F0E08827E855FD4F8F4F0C947215CA
:10055000BA02C102C402DB02F002BD0205031103AC
:1005600015032C03410356036D038203BD02970359
:10057000AE03C30384B5806884BD60E0822F0C9411
:100580009C1184B58062F8CF809180008C7F82605E
:100590008093800080918100807E8061682B6093D1
:1005A000810050938700409386008091800080688E
:1005B00080938000E2CF809180008C7F8260809366
:1005C000800080918100807E8061682B6093810033
:1005D0005093870040938600809180008062E8CF2E
:1005E000809180008C7F8260809380008091810068
:1005F000807E8061682B60938100509387004093D8
:100600008600809180008860D3CF8091B0008068A0
:100610008093B0008091B100887F682B6093B10017
:10062000ACCF8091B0008062F3CF809190008C7F3E
:1006300082608093900080919100807E8061682B21
:1006400060939100509397004093960080919000A2
:1006500080688093900091CF809190008C7F826021
:100660008093900080919100807E8061682B6093E0
:100670009100509397004093960080919000806283
:10068000E8CF809190008C7F826080939000809171
:100690009100807E8061682B609391005093970059
:1006A00040939600809190008860D3CF8091A00005
:1006B0008C7F82608093A0008091A100807E806109
:1006C000682B6093A1005093A7004093A6008091EF
:1006D000A00080688093A00050CF8091A0008C7F04
:1006E00082608093A0008091A100807E8061682B51
:1006F0006093A1005093A7004093A6008091A000B2
:100700008062E8CF8091A0008C7F82608093A000FF
:100710008091A100807E8061682B6093A10050933E
:10072000A7004093A6008091A0008860D3CF80915D
:1007300020018C7F82608093200180912101807E46
:100740008061682B6093210150932701409326011B
:10075000809120018068809320010FCF809120013B
:100760008C7F82608093200180912101807E806156
:10077000682B6093210150932701409326018091BB
:1007800020018062E8CF809120018C7F826080937D
:10079000200180912101807E8061682B609321017E
:1007A0005093270140932601809120018860D3CF88
:1007B000CF92DF92EF92FF926B017C019F7720E056
:1007C00030E040E859E50E944E0D87FF2BC020E045
:1007D00030E040E05FE3C701B6010E94F00E87FD04
:1007E0000EC020E030E040E05FE3C701B6010E94A8
:1007F000D70CFF90EF90DF90CF900C94280E20E064
:1008000030E040E05FEBC701B6010E94F00E181621
:1008100084F420E030E0A901C701B6010E94F40E83
:100820006B017C01C701B601FF90EF90DF90CF9084
:10083000089520E030E040E05FE3C701B6010E9488
:10084000D60CFF90EF90DF90CF900C943B0DE09191
:10085000FF02F09100038091480690914906A09113
:100860004A06B0914B0680839183A283B383089597
:100870002F923F924F925F926F927F928F929F92B0
:10088000AF92BF92CF92DF92EF92FF920F931F939E
:10089000CF93DF93CDB7DEB72E970FB6F894DEBFB8
:1008A0000FBECDBF80912603909127038130910523
:1008B00009F071C08091120390911303A091140369
:1008C000B091150380901A0390901B03A0901C0315
:1008D000B0901D03C0901603D0901703E09018034A
:1008E000F09019038F3F2FEF9207A207B20781F50F
:1008F000C701B6016F5F7F4F8F4F9F4F0E94EB0D77
:10090000A50194010E94F40E20E030E040E85FE48D
:100910000E94F40E609388027093890280938A0289
:1009200090938B0280914C02813009F0A2C180919A
:10093000180290911902A0911A02B0911B028093A3
:10094000200690932106A0932206B093230638C078
:10095000BC01CD016F5F7F4F8F4F9F4F0E94EB0D0A
:10096000A50194010E94F40E2B013C01C701B601C0
:100970000E94EB0DA50194010E94F40E20E030E0EE
:1009800040E85FE40E94F40E9B01AC01C301B20198
:100990000E94D70CBFCF892B99F4E091B802F09157
:1009A000B9020190F081E02D80819181A281B38113
:1009B000E0912903F0912A0380839183A283B3837A
:1009C00080911C0690911D06A0911E06B0911F06F5
:1009D0008093240690932506A0932606B0932706BD
:1009E00020914D02213041F4809120069091210602
:1009F000A0912206B09123068093280690932906A1
:100A0000A0932A06B0932B066091D3057091D4056C
:100A10008091D5059091D605E8DC8C019093D205A4
:100A20008093D105C0902806D0902906E0902A0630
:100A3000F0902B0620E030E04FE753E4C701B60109
:100A40000E944E0D87FF1EC120E030E0A901C701C2
:100A5000B6010E94F00E18160CF01BC1B701A601DA
:100A6000C8018CDCE0912903F0912A032091240233
:100A700030912502409126025091270260817181B8
:100A8000828193810E944E0D87FF07C180912802C9
:100A900090912902A0912A02B0912B0280932C06FA
:100AA00090932D06A0932E06B0932F06C0901002AF
:100AB000D0901102E0901202F0901302A70196016B
:100AC0006091C7057091C8058091C9059091CA05CC
:100AD000E5D7882341F0C092C705D092C805E092BF
:100AE000C905F092CA056BE370E080E090E0C4DBDA
:100AF0009093C6058093C50543E050E0BE016F5F4B
:100B00007F4FA9DB69817A8190E080E00E94EB0D44
:100B100020912C0230912D0240912E0250912F02F3
:100B20000E94F40E20913002309131024091320245
:100B3000509133020E94F40E20913402309135021C
:100B400040913602509137020E94F40E60933006B5
:100B5000709331068093320690933306809126037A
:100B600090912703019761F5C0901402D09015026F
:100B7000E0901602F0901702A70196016091BB0564
:100B80007091BC058091BD059091BE0587D78823E3
:100B900041F0C092BB05D092BC05E092BD05F09239
:100BA000BE056EE370E080E090E066DB9093BA05EE
:100BB0008093B90543E050E0BE016F5F7F4F4BDB90
:100BC0002091300630913106409132065091330623
:100BD00060912C0670912D0680912E0690912F0623
:100BE000E5D66B837C838D839E83609334067093FC
:100BF00035068093360690933706E0912903F091ED
:100C00002A03C080D180E280F3806090E705709075
:100C1000E8058090E9059090EA051091EF050091B4
:100C2000F005B090F105A090F205A7019601B3017F
:100C3000C4010E94F00E212F302F4B2D5A2D87FD1D
:100C400035C0C701B6012AD718160CF0EAC0212F0B
:100C5000302F4B2D5A2DB301C40120D787FD2BC057
:100C60002090F3053090F4054090F5055090F6057E
:100C700038C080911C0290911D02A0911E02B0917B
:100C80001F025DCEC12CD12C8FE7E82E83E4F82E15
:100C9000E5CEC12CD12C7601E1CE80910C02909151
:100CA0000D02A0910E02B0910F02F8CEB301C40163
:100CB000F5D687FF0AC0212F302F4B2D5A2DC701A3
:100CC000B6010E94F00E18165CF22090EB053090F1
:100CD000EC054090ED055090EE05162D072DB82C33
:100CE000A92C212F302F4B2D5A2DC701B6015ED6CE
:100CF0004B015C01A20191016B817C818D819E8100
:100D000055D6A5019401CED6209108023091090252
:100D100040910A0250910B020E94F40E6F83788773
:100D200089879A87609338067093390680933A06CC
:100D300090933B06209104023091050240910602F7
:100D4000509107026B817C818D819E810E94F40EFF
:100D50006B877C878D879E8760933C0670933D06EA
:100D600080933E0690933F06B090F705A090F8055B
:100D70009090F9058090FA056090FF05709000064C
:100D80000091010610910206A70196016B2D7A2DA4
:100D9000892D982D0E94F00E9301A80187FD45C072
:100DA000C701B6017BD618160CF4F4C210924006A7
:100DB0001092410610924206109243066090070678
:100DC000709008068090090690900A0610910F0610
:100DD00000911006B0901106A0901206A70196018E
:100DE000B301C401FDD7212F302F4B2D5A2D87FD84
:100DF00051C0C701B60152D618160CF05BC2212FA4
:100E0000302F4B2D5A2DB301C40148D687FD47C062
:100E10002090130630901406409015065090160648
:100E200054C060E070E0CB016FCF6B2D7A2D892D1F
:100E3000982D34D687FF08C09301A801C701B601D9
:100E4000CFD718160CF4AFC22091FB053091FC05EA
:100E50004091FD055091FE056B2C7A2C092D182D23
:100E60006B817C818D819E81A1D54B015C019301B9
:100E7000A801C701B6019AD59B01AC01C501B40117
:100E800011D660934006709341068093420690937A
:100E9000430694CFB301C40101D687FF0AC0212FB6
:100EA000302F4B2D5A2DC701B6019AD718160CF4C6
:100EB000AFCF20900B0630900C0640900D0650905E
:100EC0000E06162D072DB82CA92C212F302F4B2DB7
:100ED0005A2DC701B6016AD56B017C01A2019101AF
:100EE00060914006709141068091420690914306C0
:100EF0005DD5A7019601D6D520910002309101025F
:100F000040910202509103026FD76B017C01C092A5
:100F10004406D0924506E0924606F09247060091BC
:100F20002603109127032B853C854D855E856F81B7
:100F3000788589859A853BD5A701960138D5609338
:100F400048067093490680934A0690934B060130F9
:100F5000110509F042C060914402709145028091F0
:100F600046029091470224DC6B017C0120E030E0D6
:100F700040E853E493D56FEF87FF0CC020E030E0EA
:100F8000A901C701B6012CD760E087FD03C0C701E6
:100F9000B601F5D588E0EAD960914802709149021E
:100FA00080914A0290914B0203DC6B017C0120E0AE
:100FB00030E040E853E472D56FEF87FF0CC020E0CB
:100FC00030E0A901C701B6010BD760E087FD03C07F
:100FD000C701B601D4D587E0C9D980912603909185
:100FE0002703019709F04DC18091E7059091E8052D
:100FF000A091E905B091EA058B839C83AD83BE8304
:10100000C0905406D0905506E0905606F0905706D2
:101010000091290310912A03D8018D909D90AD90E5
:10102000BC90A70196016B817C818D819E8136D514
:10103000811144C18092E7059092E805A092E905EC
:10104000B092EA05EBEEF5E080913406909135061A
:10105000A0913606B09137068B839C83AD83BE8307
:1010600080839183A283B3838091F7059091F805E3
:10107000A091F905B091FA058F839887A987BA875F
:101080009C01AD01C701B60109D5D8018D909D9095
:10109000AD90BC90811136C18092F7059092F80511
:1010A000A092F905B092FA05EBEFF5E08B819C81F7
:1010B000AD81BE8180839183A283B3838091070633
:1010C00090910806A0910906B0910A068B839C8333
:1010D000AD83BE839C01AD01C701B601DFD4D80149
:1010E0008D909D90AD90BC90811130C1809207068B
:1010F00090920806A0920906B0920A06EBE0F6E08C
:101100008091400690914106A0914206B09143061D
:1011100080839183A283B383409088025090890298
:1011200060908A0270908B02E0918C02F0918D02A7
:1011300080809180A280B380E091BC02F091BD02DA
:1011400000811181E0918002F0918102E080F180C4
:10115000E0917E02F0917F0211821082E091B6024E
:10116000F091B702F182E08272DBE091B802F09177
:10117000B9020190F081E02D408251826282738237
:10118000F7012081318142815381C501B4012CD600
:101190009B01AC01D8016D917D918D919C9107D4FB
:1011A000F8016083718382839383E0917E02F091E2
:1011B0007F0281E090E0918380838091120390917F
:1011C0001303A0911403B09115030196A11DB11D45
:1011D0008093120390931303A0931403B093150309
:1011E000892B8A2B8B2B99F48091160390911703EE
:1011F000A0911803B09119030196A11DB11D809310
:10120000160390931703A0931803B09319038091CA
:10121000880290918902A0918A02B0918B02E0919C
:101220002903F0912A0380839183A283B383809161
:101230001E0390911F03A0912003B09121030196FA
:10124000A11DB11D80931E0390931F03A093200343
:10125000B0932103892B8A2B8B2B99F48091220345
:1012600090912303A0912403B09125030196A11D21
:10127000B11D8093220390932303A0932403B09382
:1012800025032E960FB6F894DEBF0FBECDBFDF91BB
:10129000CF911F910F91FF90EF90DF90CF90BF9073
:1012A000AF909F908F907F906F905F904F903F9006
:1012B0002F90089560E070E0CB011ECE4090EF05C6
:1012C0005090F0056090F1057090F205A301920135
:1012D000C701B601E3D381110BC08092EF05909254
:1012E000F005A092F105B092F205E3EFF5E0ACCE87
:1012F000A30192016B817C818D819E81CFD387FF79
:10130000ECCF98CE4090FF0550900006609001060B
:1013100070900206A3019201C701B601BFD38111EB
:101320000BC08092FF0590920006A0920106B09239
:101330000206E3E0F6E0BACEA30192016F81788560
:1013400089859A85ABD387FFECCFA6CE40900F0658
:10135000509010066090110670901206A301920141
:10136000C701B6019BD381110BC080920F069092EA
:101370001006A0921106B0921206E3E1F6E0C0CE8C
:10138000A30192016B817C818D819E8187D387FF30
:10139000ECCFACCE9301A8016B2D7A2D892D982D21
:1013A0007DD387FD49CD20910306309104064091FD
:1013B00005065091060654CD8F929F92AF92BF9230
:1013C000DF92EF92FF920F931F93CF93DF9384E00E
:1013D00090E0E1D1EAE7F2E089EBDF011D928A9526
:1013E000E9F7A6E2B3E0B583A48389E293E097AF7F
:1013F00086AFCAE1D3E0D38BC28B2FEF32E035AF9B
:1014000024AF49EF52E05093BD024093BC022CE060
:1014100033E03093BB022093BA022EE033E03093E6
:10142000BF022093BE022BEF32E03093C102209323
:10143000C0022DEF32E03093C3022093C202F0933A
:10144000E302E093E202F383E28321E030E02D93B4
:101450003C932AE033E066E073E0D9016D937C931E
:101460000CE116E0DA010D931C93378326832FE4F9
:1014700032E0318720872BE233E0FC013183208387
:101480004DEC5CEC6CE47DE3488359836A837B8399
:10149000E0E2F6E08CE2DF011D928A95E9F784E054
:1014A000F80111928A95E9F7C3EBD5E089E6DE01F0
:1014B0001D928A95E9F7DD24D394D09217068AE02D
:1014C00090E0A0E0B0E088A399A3AAA3BBA3812CDD
:1014D000912C54018394898E9A8EAB8EBC8EE12C14
:1014E000F12C8701A80197016AE070E080E090E0AC
:1014F0000E9439029F8F8E8F68A179A18AA19BA13A
:101500000E94F5019F8F8E8F0E94BD01DD8E1C868B
:10151000D0921B0600E012E0F80180899189A2892F
:10152000B3898C8B9D8BAE8BBF8B198A8D869E86E3
:10153000AF86B88A6BE370E080E090E00E948001A3
:101540009B8B8A8BD98A1882D0921A06F8018489DB
:101550009589A689B78988879987AA87BB871D82BD
:1015600089829A82AB82BC826EE370E080E090E078
:101570000E9480019F838E83DD821CA6D092190673
:101580008DA69EA6AFA6B8AA61E088E00E94AE0133
:10159000D9AA1CA2D09218068DA29EA2AFA2B8A66C
:1015A00061E087E00E94AE01D9A6F80180A191A177
:1015B000A2A1B3A180931C0690931D06A0931E06C2
:1015C000B0931F068091540690915506A09156063F
:1015D000B09157068CAB9DABAEABBFAB8CAF9DAFA4
:1015E000AEAFBFAF8093F7059093F805A093F905D0
:1015F000B093FA058093FF0590930006A09301062F
:10160000B09302068093070690930806A0930906FC
:10161000B0930A0680930F0690931006A0931106CC
:10162000B0931206DF91CF911F910F91FF90EF9031
:10163000DF90BF90AF909F908F9008958091CB05E1
:10164000811136C081E08093CB058091CC059091CB
:10165000CD05A091CE05B091CF050197A105B105AB
:1016600039F58091D005882319F16091D3057091E7
:10167000D4058091D5059091D6050E94F5019093EF
:10168000D2058093D10540E050E0BA010E94BE012E
:101690006091D3057091D4058091D5059091D605C0
:1016A0000E94F5019093D2058093D1050E948A0291
:1016B0008091BF0581111FC081E08093BF0580919B
:1016C000C0059091C105A091C205B091C3050197D5
:1016D000A105B10581F48091C405882361F06BE315
:1016E00070E080E090E00E943C019093C6058093FA
:1016F000C5050E94A3018091B30581111FC081E03F
:101700008093B3058091B4059091B505A091B6057D
:10171000B091B7050197A105B10581F48091B80595
:10172000882361F06EE370E080E090E00E943C016D
:101730009093BA058093B9050E94A3018091DF05BB
:10174000811103C081E08093DF058091D70581116D
:1017500003C081E08093D705089560E070E080E8E1
:101760009FE7089560E070E080E89FE7089560E0FB
:1017700070E080E89FEF089560E070E080E89FEF00
:10178000089560E070E080EC9FEF089560E070E005
:1017900080EC9FEF0895F5DF60935806709359062B
:1017A00080935A0690935B06F1DF60934C0670932A
:1017B0004D0680934E0690934F06CFDF60935406FC
:1017C000709355068093560690935706CBDF60932F
:1017D0005006709351068093520690935306C7DFCC
:1017E00060935C0670935D0680935E0690935F063F
:1017F000C3DF6093600670936106809362069093E6
:101800006306089540E855E260E070E090E080E013
:1018100000C08130910571F01CF4892B39F00895D6
:101820008230910559F0039769F0089526E08FE31F
:1018300093E079C626E08CED93E0FBCF26E089E7C4
:1018400094E0F7CF26E086E195E0F3CF1F920F9268
:101850000FB60F9211240BB60F922F933F934F9315
:101860005F936F937F938F939F93AF93BF93EF9308
:10187000FF938BEC93EF909325018093240134D058
:10188000FF91EF91BF91AF919F918F917F916F9158
:101890005F914F913F912F910F900BBE0F900FBE14
:1018A0000F901F9018958BEC93EF909325018093E8
:1018B0002401A3E7B0E08C918E7F8C93E0E2F1E00D
:1018C00080818C7F8083E1E2F1E08081877E80836C
:1018D00080818460808380818C7F80838C91816013
:1018E0008C93089581E008958091330391E0980FDF
:1018F00090933303882349F021E030E0309335039F
:101900002093340380933303089578940E9438041D
:10191000F894809133038150F5CF0F931F93CF93A9
:10192000DF9310926506109264060BD36BDFC091B3
:101930005402D0915502198218823EDDF894B3DF2B
:1019400088819981892B31F481E0FE01E255FF4FB6
:101950009081911180E080936406789478948E0150
:1019600002551F4F80916406811109C067DEF8940B
:1019700090E080E0DF91CF911F910F9108958881D1
:101980009981892B89F481E0F8019081911101C03E
:1019900080E0809365069091650681E0911180E07A
:1019A000809364069FDFDECF81E0F3CF5058BB27E2
:1019B000AA270ED0C4C1B5D130F0BAD120F031F48D
:1019C0009F3F11F41EF4AAC10EF4E095E7FB77C126
:1019D000E92FC6D180F3BA1762077307840795070A
:1019E00018F071F49EF5F5C10EF4E0950B2EBA2FA8
:1019F000A02D0B01B90190010C01CA01A001112415
:101A0000FF27591B99F0593F50F4503E68F11A16C0
:101A1000F040A22F232F342F4427585FF3CF469551
:101A200037952795A795F0405395C9F77EF41F1673
:101A3000BA0B620B730B840BBAF09150A1F0FF0F3D
:101A4000BB1F661F771F881FC2F70EC0BA0F621F29
:101A5000731F841F48F4879577956795B795F79519
:101A60009E3F08F0B3CF9395880F08F09927EE0FAB
:101A700097958795089596D180F09F3740F49111FE
:101A80000EF4A8C160E070E080E89FE3089526F0BE
:101A90001B16611D711D811D18C132C1ECD008F4E7
:101AA00081E008950CD04BC143D140F03AD130F0E1
:101AB00021F45F3F19F003C151118CC12FC150D1E6
:101AC00098F39923C9F35523B1F3951B550BBB2705
:101AD000AA2762177307840738F09F5F5F4F220FB2
:101AE000331F441FAA1FA9F333D00E2E3AF0E0E8AB
:101AF00030D091505040E695001CCAF729D0FE2FF7
:101B000027D0660F771F881FBB1F26173707480788
:101B1000AB07B0E809F0BB0B802DBF01FF2793583E
:101B20005F4F2AF09E3F510568F0C9C053C15F3F27
:101B3000ECF3983EDCF3869577956795B795F79526
:101B40009F5FC9F7880F911D9695879597F908951E
:101B5000E1E0660F771F881FBB1F621773078407BA
:101B6000BA0720F0621B730B840BBA0BEE1F88F7C9
:101B7000E095089504D06894B1112CC10895F8D06F
:101B800088F09F5790F0B92F9927B751A0F0D1F066
:101B9000660F771F881F991F1AF0BA95C9F712C0F0
:101BA000B13081F016D1B1E0089513C1672F782FBD
:101BB0008827B85F39F0B93FCCF38695779567955C
:101BC000B395D9F73EF490958095709561957F4FC8
:101BD0008F4F9F4F0895E89409C097FB3EF490956E
:101BE0008095709561957F4F8F4F9F4F9923A9F0F6
:101BF000F92F96E9BB279395F69587957795679585
:101C0000B795F111F8CFFAF4BB0F11F460FF1BC0C8
:101C10006F5F7F4F8F4F9F4F16C0882311F096E95B
:101C200011C0772321F09EE8872F762F05C0662309
:101C300071F096E8862F70E060E02AF09A95660FC2
:101C4000771F881FDAF7880F9695879597F908957B
:101C5000A9D080F09F3740F491110EF0BBC060E036
:101C600070E080E89FEB089526F41B16611D711D3E
:101C7000811D2BC045C0990F0008550FAA0BE0E845
:101C8000FEEF16161706E807F907C0F0121613063E
:101C9000E407F50798F0621B730B840B950B39F47E
:101CA0000A2661F0232B242B252B21F408950A26E4
:101CB00009F4A140A6958FEF811D811D089597F924
:101CC0009F6780E870E060E00895882371F47723CF
:101CD00021F09850872B762F07C0662311F499279F
:101CE0000DC09051862B70E060E02AF09A95660F47
:101CF000771F881FDAF7880F9695879597F90895CB
:101D00009F3F31F0915020F4879577956795B7956F
:101D1000880F911D9695879597F908959FEF80EC10
:101D2000089500240A941616170618060906089541
:101D300000240A9412161306140605060895092EA7
:101D40000394000C11F4882352F0BB0F40F4BF2B16
:101D500011F460FF04C06F5F7F4F8F4F9F4F089556
:101D600057FD9058440F551F59F05F3F71F047954C
:101D7000880F97FB991F61F09F3F79F08795089531
:101D8000121613061406551FF2CF4695F1DF08C050
:101D9000161617061806991FF1CF8695710561056D
:101DA00008940895E5DFA0F0BEE7B91788F4BB27D3
:101DB0009F3860F41616B11D672F782F8827985F1B
:101DC000F7CF869577956795B11D93959639C8F3AA
:101DD0000895E894BB2766277727CB0197F90895E4
:101DE0004ADF08F48FEF08950BD0A9CF9ADF28F0CF
:101DF0009FDF18F0952309F062CF90CF1124EACF2E
:101E0000AFDFA0F3959FD1F3950F50E0551F629F70
:101E1000F001729FBB27F00DB11D639FAA27F00D43
:101E2000B11DAA1F649F6627B00DA11D661F829F6A
:101E30002227B00DA11D621F739FB00DA11D621F4F
:101E4000839FA00D611D221F749F3327A00D611D6C
:101E5000231F849F600D211D822F762F6A2F11244E
:101E60009F5750408AF0E1F088234AF0EE0FFF1FA1
:101E7000BB1F661F771F881F91505040A9F79E3FD8
:101E8000510570F01CCFA6CF5F3FECF3983EDCF31A
:101E9000869577956795B795F795E7959F5FC1F715
:101EA000FE2B880F911D9695879597F908951F929F
:101EB0000F920FB60F9211242F933F938F939F93FE
:101EC000AF93BF938091370390913803A09139036A
:101ED000B0913A033091360323E0230F2D3758F5A4
:101EE0000196A11DB11D2093360380933703909373
:101EF0003803A0933903B0933A0380913B03909148
:101F00003C03A0913D03B0913E030196A11DB11D7C
:101F100080933B0390933C03A0933D03B0933E0317
:101F2000BF91AF919F918F913F912F910F900FBED5
:101F30000F901F90189526E8230F0296A11DB11D42
:101F4000D2CF789484B5826084BD84B5816084BD2D
:101F500085B5826085BD85B5816085BDEEE6F0E022
:101F6000808181608083E1E8F0E01082808182607E
:101F70008083808181608083E0E8F0E080818160FF
:101F80008083E1EBF0E0808184608083E0EBF0E02F
:101F9000808181608083E1E9F0E0808182608083DC
:101FA000808181608083E0E9F0E0808181608083CE
:101FB000E1EAF0E0808182608083808181608083BB
:101FC000E0EAF0E0808181608083E1E2F1E08081FD
:101FD00082608083808181608083E0E2F1E08081A3
:101FE00081608083EAE7F0E0808184608083808183
:101FF000826080838081816080838081806880832B
:102000001092C1000895863308F0865320917B001A
:10201000982F9870277F922B90937B0020914E02EF
:1020200090E4299F900111248770822B80937C007B
:1020300080917A00806480937A0080917A0086FD96
:10204000FCCF809178009091790008951F93CF93F1
:10205000DF93182FEB0161E033D1209731F460E07A
:10206000812FDF91CF911F9167C1CF3FD10511F42F
:1020700061E0F6CFE12FF0E0EC51FF4FE491E15049
:10208000E23108F0B2C0F0E08827E75BFF4E8F4FE7
:1020900029C55B106310681072107C10F510861053
:1020A0008E109610A010AA10B410C310CD10F51009
:1020B000D710E110EB1084B5806884BDC7BDDF91F7
:1020C000CF911F91089584B5806284BDC8BDF7CFBC
:1020D00080918000806880938000D0938900C093B5
:1020E0008800EDCF80918000806280938000D09343
:1020F0008B00C0938A00E3CF80918000886080933A
:102100008000D0938D00C0938C00D9CF8091B00017
:1021100080688093B000C093B300D1CF8091B000AD
:1021200080628093B000C093B400C9CF80919000CA
:10213000806880939000D0939900C0939800BFCF9F
:1021400080919000806280939000D0939B00C09318
:102150009A00B5CF80919000886080939000D093D2
:102160009D00C0939C00ABCF8091A00080688093BD
:10217000A0008091A0008F7B8093A000D093A90045
:10218000C093A8009CCF8091A00080628093A000A3
:10219000D093AB00C093AA0092CF8091A00088603A
:1021A0008093A000D093AD00C093AC0088CF809105
:1021B0002001806880932001D0932901C0932801D9
:1021C0007ECF80912001806280932001D0932B01EB
:1021D000C0932A0174CF80912001886080932001F0
:1021E000D0932D01C0932C016ACFC038D1050CF0DB
:1021F0003FCF35CF8150823108F059C0E82FF0E051
:102200008827EB5FFE4E8F4F6DC4251129111711E2
:102210001D11211157112C11321136113C11401191
:1022200044114A114E115711521158115C118091ED
:1022300080008F77809380000895809180008F7D4B
:10224000F9CF80918000877FF5CF84B58F7784BDEB
:10225000089584B58F7DFBCF8091B0008F778093F8
:10226000B00008958091B0008F7DF9CF80919000EB
:102270008F77809390000895809190008F7DF9CFA3
:1022800080919000877FF5CF8091A0008F77809319
:10229000A00008958091A0008F7DF9CF8091A000CB
:1022A000877FF5CF809120018F778093200108955B
:1022B000809120018F7DF9CF80912001877FF5CF1C
:1022C000CF93DF9390E0FC01E65DFE4F24918059AF
:1022D0009E4FFC0184918823C9F090E0880F991FDC
:1022E000FC01E053FE4FA591B491FC01EA54FE4F6E
:1022F000C591D49161110DC09FB7F8948C91209530
:1023000082238C938881282328839FBFDF91CF91DC
:102310000895623051F49FB7F8943C91822F8095D4
:1023200083238C93E8812E2BEFCF8FB7F894EC9119
:102330002E2B2C938FBFEACF1F93CF93DF93282FA1
:1023400030E0F901EC51FF4F8491F901E65DFE4F59
:10235000D491F901E059FE4FC491CC23A1F0162F7E
:10236000811148DFEC2FF0E0EE0FFF1FEA54FE4F23
:10237000A591B4918FB7F894EC91111108C0D09544
:10238000DE23DC938FBFDF91CF911F910895DE2B69
:10239000F8CFFC01918D228D892F90E0805C9F4FBA
:1023A000821B91098F7399270895FC01918D828D6D
:1023B000981731F0828DE80FF11D858D90E008951A
:1023C0008FEF9FEF0895FC01918D828D981761F03A
:1023D000A28DAE0FBF2FB11D5D968C91928D9F5F28
:1023E0009F73928F90E008958FEF9FEF0895FC0107
:1023F000538D448D252F30E0842F90E0821B930B6A
:10240000541710F0CF96089501970895FC01A48DFC
:10241000A80FB92FB11DA35ABF4F2C91848D90E006
:1024200001968F739927848FA689B7892C93A089E9
:10243000B1898C91837080648C93938D848D981373
:1024400006C00288F389E02D80818F7D8083089506
:10245000CF93DF93EC01888D8823B1F0AA89BB89E3
:10246000E889F9898C9185FD03C0808186FD0CC0C7
:102470000FB607FCF7CF8C9185FFF2CF808185FFE7
:10248000EDCFCE01C3DFEACFDF91CF910895EF9278
:10249000FF920F931F93CF93DF93EC0181E0888F1E
:1024A0009B8D8C8D98131AC0E889F989808185FFEE
:1024B00015C09FB7F894EE89FF896083E889F98990
:1024C00080818370806480839FBF81E090E0DF9192
:1024D000CF911F910F91FF90EF900895F62E0B8DE5
:1024E00010E00F5F1F4F0F731127E02E8C8D8E11A0
:1024F0000BC00FB607FCFACFE889F989808185FF08
:10250000F5CFCE0183DFF2CFEB8DEC0FFD2FF11D68
:10251000E35AFF4FF0829FB7F8940B8FEA89FB894B
:1025200080818062D0CFCF92DF92EF92FF921F9393
:10253000CF93DF93EC016A017B01122FE889F989BF
:1025400082E08083C11481EED806E104F10499F0A1
:1025500060E079E08DE390E0A7019601A1D22150DF
:102560003109410951095695479537952795211508
:1025700080E1380790F0E889F989108260E874E812
:102580008EE190E0A70196018BD2215031094109DB
:1025900051095695479537952795EC85FD853083EC
:1025A000EE85FF852083188EEC89FD891083EA89EA
:1025B000FB89808180618083EA89FB8980818860D2
:1025C0008083EA89FB89808180688083EA89FB892E
:1025D00080818F7D8083DF91CF911F91FF90EF905D
:1025E000DF90CF9008951F920F920FB60F92112493
:1025F0000BB60F922F938F939F93EF93FF93E091DE
:102600004F03F09150038081E0915503F091560300
:1026100082FD1DC09081809158038F5F8F73209140
:102620005903821741F0E0915803F0E0E15CFC4F60
:10263000958F80935803FF91EF919F918F912F91E8
:102640000F900BBE0F900FBE0F901F9018958081BA
:10265000F2CF1F920F920FB60F9211240BB60F926A
:102660002F933F934F935F936F937F938F939F939A
:10267000AF93BF93EF93FF938FE393E0C7DEFF9198
:10268000EF91BF91AF919F918F917F916F915F91EA
:102690004F913F912F910F900BBE0F900FBE0F9057
:1026A0001F901895EFE3F3E01382128288EE93E017
:1026B000A0E0B0E084839583A683B7838AE592E0A7
:1026C0009183808385EC90E09587848784EC90E00B
:1026D0009787868780EC90E0918B808B81EC90E0EF
:1026E000938B828B82EC90E0958B848B86EC90E0D0
:1026F000978B868B118E128E138E148E08951F92D7
:102700000F920FB60F9211240BB60F922F938F9347
:102710009F93EF93FF93E091EC03F091ED038081A1
:10272000E091F203F091F30382FD1DC0908180914E
:10273000F5038F5F8F732091F603821741F0E091CC
:10274000F503F0E0E452FC4F958F8093F503FF9181
:10275000EF919F918F912F910F900BBE0F900FBE15
:102760000F901F9018958081F2CF1F920F920FB695
:102770000F9211240BB60F922F933F934F935F93B9
:102780006F937F938F939F93AF93BF93EF93FF9339
:102790008CED93E03BDEFF91EF91BF91AF919F9164
:1027A0008F917F916F915F914F913F912F910F90FA
:1027B0000BBE0F900FBE0F901F901895ECEDF3E03D
:1027C0001382128288EE93E0A0E0B0E084839583C8
:1027D000A683B7838AE592E0918380838DEC90E0B5
:1027E000958784878CEC90E09787868788EC90E0CB
:1027F000918B808B89EC90E0938B828B8AEC90E0BC
:10280000958B848B8EEC90E0978B868B118E128E3D
:10281000138E148E08951F920F920FB60F921124EB
:102820000BB60F922F938F939F93EF93FF93E091AB
:102830008904F0918A048081E0918F04F0919004E2
:1028400082FD1DC09081809192048F5F8F732091D3
:102850009304821741F0E0919204F0E0E758FB4FB7
:10286000958F80939204FF91EF919F918F912F917B
:102870000F900BBE0F900FBE0F901F901895808188
:10288000F2CF1F920F920FB60F9211240BB60F9238
:102890002F933F934F935F936F937F938F939F9368
:1028A000AF93BF93EF93FF9389E794E0AFDDFF9180
:1028B000EF91BF91AF919F918F917F916F915F91B8
:1028C0004F913F912F910F900BBE0F900FBE0F9025
:1028D0001F901895E9E7F4E01382128288EE93E0E6
:1028E000A0E0B0E084839583A683B7838AE592E075
:1028F0009183808385ED90E09587848784ED90E0D7
:102900009787868780ED90E0918B808B81ED90E0BA
:10291000938B828B82ED90E0958B848B86ED90E09B
:10292000978B868B118E128E138E148E08951F92A4
:102930000F920FB60F9211240BB60F922F938F9315
:102940009F93EF93FF93E0912605F09127058081F7
:10295000E0912C05F0912D0582FD1DC090818091A4
:102960002F058F5F8F7320913005821741F0E09122
:102970002F05F0E0EA5EFA4F958F80932F05FF91C7
:10298000EF919F918F912F910F900BBE0F900FBEE3
:102990000F901F9018958081F2CF1F920F920FB663
:1029A0000F9211240BB60F922F933F934F935F9387
:1029B0006F937F938F939F93AF93BF93EF93FF9307
:1029C00086E195E023DDFF91EF91BF91AF919F915B
:1029D0008F917F916F915F914F913F912F910F90C8
:1029E0000BBE0F900FBE0F901F901895E6E1F5E01B
:1029F0001382128288EE93E0A0E0B0E08483958396
:102A0000A683B7838AE592E09183808385E391E092
:102A10009587848784E391E09787868780E391E0B8
:102A2000918B808B81E391E0938B828B82E391E0A9
:102A3000958B848B86E391E0978B868B118E128E1B
:102A4000138E148E0895AF92BF92CF92DF92EF92C1
:102A5000FF920F931F93CF93DF936C017B018B0148
:102A6000040F151FEB015E01AE18BF08C017D10798
:102A700059F06991D601ED91FC910190F081E02D22
:102A8000C6011995892B79F7C501DF91CF911F9167
:102A90000F91FF90EF90DF90CF90BF90AF9008958F
:102AA000A1E21A2EAA1BBB1BFD010DC0AA1FBB1F52
:102AB000EE1FFF1FA217B307E407F50720F0A21BC4
:102AC000B30BE40BF50B661F771F881F991F1A9431
:102AD00069F760957095809590959B01AC01BD015B
:102AE000CF010895EE0FFF1F881F8BBF0790F6914F
:082AF000E02D1994F894FFCFCA
:102AF800CDCCCC3D9A99193EEC51B83D00007A44B2
:102B0800000080BF000080BF0000000000004842B5
:102B1800000000000000803F0000000000000040AE
:102B28000A28A03BABAAA6430A28A03B00002041E4
:102B38000000C8410000803F000000000100016F54
:102B4800646531007A020000000047122315F7116E
:082B58002812C911E311D51187
:00000001FF
